:1002B80048656C6C6F20576F726C642100000000F9
:1001E80078087C007D007BFF7A0279B87E007F105A
:1001F8001200D312030B12020F7B007A007908E475
:07020800FDFF12011280FE50
:10020F007D277F4E12029C7F3312015A7F321201DB
:10021F005A7F2812015A7F0C12015A7F0612015A77
:05022F007F0102015AED
:0C02F3007D277F4E12029C7F0102015A01
:10015A008F1DE51D54F0F51E431E0CAF1E1202340E
:10016A00531EFBAF1E120234E51D540FC454F0F5A2
:10017A001E431E0CAF1E120234531EFBAF1E020298
:01018A003440
:10018B008F1DE51D54F0F51E431E0DAF1E120234DC
:10019B00531EFBAF1E120234E51D540FC454F0F571
:1001AB001E431E0DAF1E120234531EFBAF1E020266
:0101BB00340F
:100112008F188D198B1A8A1B891C7D277F4E12021C
:100122009CE5187008E5194480FF12015AE518642D
:10013200017008E51944C0FF12015AAB1AAA1BA9A3
:100142001C1200F9FF601012018B7401251CF51CB2
:08015200E4351BF51B80E422DB
:0503150012031AD2A042
:03031A00000022BE
:0D02E600D2A1120315C2A112031AC2A02258
:0F02C800C2A112031AC2A0120315D2A102031A77
:0A030B00D2A012031AD2A102031AB5
:0F02D700A202B392A1D2A012031AC2A002031A6C
:10025800C201E4FFD2A012031A30A1110FEFC39418
:10026800FA748094805006A2A1920180ECC2A0A2E8
:0302780001B322AD
:10023400E4FEEEC39408748094805013EF3392A1CB
:10024400120315C2A012031AEF25E0FF0E80E3D2B9
:04025400A1020258A9
:10029C00C2001202C81202E61202345009AF051253
:0C02AC00023450028001C39200A2002224
:1001BC00E4FFFED2A112031AEFC39408748094805A
:1001CC005017D2A0EE25E0FEA2A1E4334EFE12039E
:0C01DC001AC2A012031A0F80DFAF062227
:10027B00AC071202E6120234AF051202341202E688
:10028B00EC04FF1202341201BCC2021202D70202AA
:01029B00C89A
:030000000202FFFA
:0C02FF00787FE4F6D8FD7581200201E84C
:10000300E709F608DFFA8046E709F208DFFA803EDF
:1000130088828C83E709F0A3DFFA8032E309F608CC
:10002300DFFA8078E309F208DFFA807088828C8334
:10003300E309F0A3DFFA806489828A83E0A3F608E8
:10004300DFFA805889828A83E0A3F208DFFA804CC2
:1000530080D280FA80C680D4806980F28033801099
:1000630080A680EA809A80A880DA80E280CA803302
:1000730089828A83ECFAE493A3C8C582C8CCC5837A
:10008300CCF0A3C8C582C8CCC583CCDFE9DEE7804A
:100093000D89828A83E493A3F608DFF9ECFAA9F0C9
:1000A300EDFB2289828A83ECFAE0A3C8C582C8CC1F
:1000B300C583CCF0A3C8C582C8CCC583CCDFEADE38
:1000C300E880DB89828A83E493A3F208DFF980CC9A
:1000D30088F0EF60010E4E60C388F0ED2402B40493
:1000E3000050B9F582EB2402B4040050AF2323453A
:0600F3008223900053730C
:1000F900BB010689828A83E0225002E722BBFE0205
:09010900E32289828A83E4932237
:00000001FF
